{
  "contractName": "CrowdSale",
  "abi": [
    {
      "inputs": [
        {
          "internalType": "contract IERC20Interface",
          "name": "_tokenContract",
          "type": "address"
        },
        {
          "internalType": "uint256",
          "name": "_price",
          "type": "uint256"
        }
      ],
      "stateMutability": "nonpayable",
      "type": "constructor"
    },
    {
      "anonymous": false,
      "inputs": [
        {
          "indexed": false,
          "internalType": "address",
          "name": "_buyer",
          "type": "address"
        },
        {
          "indexed": false,
          "internalType": "uint256",
          "name": "_amount",
          "type": "uint256"
        }
      ],
      "name": "Sell",
      "type": "event"
    },
    {
      "inputs": [],
      "name": "admin",
      "outputs": [
        {
          "internalType": "address",
          "name": "",
          "type": "address"
        }
      ],
      "stateMutability": "view",
      "type": "function",
      "constant": true
    },
    {
      "inputs": [],
      "name": "tokenContract",
      "outputs": [
        {
          "internalType": "contract IERC20Interface",
          "name": "",
          "type": "address"
        }
      ],
      "stateMutability": "view",
      "type": "function",
      "constant": true
    },
    {
      "inputs": [],
      "name": "tokenPrice",
      "outputs": [
        {
          "internalType": "uint256",
          "name": "",
          "type": "uint256"
        }
      ],
      "stateMutability": "view",
      "type": "function",
      "constant": true
    },
    {
      "inputs": [],
      "name": "tokensSold",
      "outputs": [
        {
          "internalType": "uint256",
          "name": "",
          "type": "uint256"
        }
      ],
      "stateMutability": "view",
      "type": "function",
      "constant": true
    },
    {
      "inputs": [
        {
          "internalType": "uint256",
          "name": "_numberOfTokens",
          "type": "uint256"
        }
      ],
      "name": "buyTokens",
      "outputs": [],
      "stateMutability": "payable",
      "type": "function",
      "payable": true
    }
  ],
  "bytecode": "0x608060405234801561001057600080fd5b506040516107423803806107428339818101604052810190610032919061016c565b336000806101000a81548173ffffffffffffffffffffffffffffffffffffffff021916908373ffffffffffffffffffffffffffffffffffffffff16021790555081600160006101000a81548173ffffffffffffffffffffffffffffffffffffffff021916908373ffffffffffffffffffffffffffffffffffffffff1602179055508060028190555050506101ac565b600080fd5b600073ffffffffffffffffffffffffffffffffffffffff82169050919050565b60006100f1826100c6565b9050919050565b6000610103826100e6565b9050919050565b610113816100f8565b811461011e57600080fd5b50565b6000815190506101308161010a565b92915050565b6000819050919050565b61014981610136565b811461015457600080fd5b50565b60008151905061016681610140565b92915050565b60008060408385031215610183576101826100c1565b5b600061019185828601610121565b92505060206101a285828601610157565b9150509250929050565b610587806101bb6000396000f3fe60806040526004361061004a5760003560e01c80633610724e1461004f578063518ab2a81461006b57806355a373d6146100965780637ff9b596146100c1578063f851a440146100ec575b600080fd5b610069600480360381019061006491906102b7565b610117565b005b34801561007757600080fd5b50610080610226565b60405161008d91906102f3565b60405180910390f35b3480156100a257600080fd5b506100ab61022c565b6040516100b8919061038d565b60405180910390f35b3480156100cd57600080fd5b506100d6610252565b6040516100e391906102f3565b60405180910390f35b3480156100f857600080fd5b50610101610258565b60405161010e91906103c9565b60405180910390f35b600254816101259190610413565b341461013057600080fd5b600160009054906101000a900473ffffffffffffffffffffffffffffffffffffffff1673ffffffffffffffffffffffffffffffffffffffff1663a9059cbb33836040518363ffffffff1660e01b815260040161018d92919061046d565b6020604051808303816000875af11580156101ac573d6000803e3d6000fd5b505050506040513d601f19601f820116820180604052508101906101d091906104ce565b5080600360008282546101e391906104fb565b925050819055507f5e5e995ce3133561afceaa51a9a154d5db228cd7525d34df5185582c18d3df09338260405161021b92919061046d565b60405180910390a150565b60035481565b600160009054906101000a900473ffffffffffffffffffffffffffffffffffffffff1681565b60025481565b60008054906101000a900473ffffffffffffffffffffffffffffffffffffffff1681565b600080fd5b6000819050919050565b61029481610281565b811461029f57600080fd5b50565b6000813590506102b18161028b565b92915050565b6000602082840312156102cd576102cc61027c565b5b60006102db848285016102a2565b91505092915050565b6102ed81610281565b82525050565b600060208201905061030860008301846102e4565b92915050565b600073ffffffffffffffffffffffffffffffffffffffff82169050919050565b6000819050919050565b600061035361034e6103498461030e565b61032e565b61030e565b9050919050565b600061036582610338565b9050919050565b60006103778261035a565b9050919050565b6103878161036c565b82525050565b60006020820190506103a2600083018461037e565b92915050565b60006103b38261030e565b9050919050565b6103c3816103a8565b82525050565b60006020820190506103de60008301846103ba565b92915050565b7f4e487b7100000000000000000000000000000000000000000000000000000000600052601160045260246000fd5b600061041e82610281565b915061042983610281565b9250817fffffffffffffffffffffffffffffffffffffffffffffffffffffffffffffffff0483118215151615610462576104616103e4565b5b828202905092915050565b600060408201905061048260008301856103ba565b61048f60208301846102e4565b9392505050565b60008115159050919050565b6104ab81610496565b81146104b657600080fd5b50565b6000815190506104c8816104a2565b92915050565b6000602082840312156104e4576104e361027c565b5b60006104f2848285016104b9565b91505092915050565b600061050682610281565b915061051183610281565b9250827fffffffffffffffffffffffffffffffffffffffffffffffffffffffffffffffff03821115610546576105456103e4565b5b82820190509291505056fea2646970667358221220591ab4b78c67e95bc54beda4cf4bcf1930f6fe218a481304f53b9d59fb48588364736f6c634300080f0033",
  "immutableReferences": {},
  "source": "// SPDX-License-Identifier: MIT\npragma solidity 0.8.15;\nimport \"./Interface.sol\";\ncontract CrowdSale{\n  address public admin;\n  IERC20Interface public tokenContract;\n  uint256 public tokenPrice;\n  uint256 public tokensSold;\n  event Sell(address _buyer, uint256 _amount);\n  constructor(IERC20Interface _tokenContract,uint256 _price){\n    admin = msg.sender;\n    tokenContract = _tokenContract;\n    tokenPrice = _price;\n  }\n  function buyTokens(uint256 _numberOfTokens) public payable{\n      require(msg.value == _numberOfTokens * tokenPrice);\n      //require(tokenContract.balanceOf(address(this)) >= _numberOfTokens);\n      tokenContract.transfer(msg.sender, _numberOfTokens);\n      tokensSold += _numberOfTokens ;\n      emit Sell(msg.sender, _numberOfTokens);\n  }\n}\n",
  "sourcePath": "/home/viraj/Desktop/token_sale/contracts/CrowdSale.sol",
  "compiler": {
    "name": "solc",
    "version": "0.8.15+commit.e14f2714.Emscripten.clang"
  },
  "schemaVersion": "3.4.7",
  "updatedAt": "2022-07-22T05:12:31.794Z",
  "networkType": "ethereum",
  "devdoc": {
    "kind": "dev",
    "methods": {},
    "version": 1
  },
  "userdoc": {
    "kind": "user",
    "methods": {},
    "version": 1
  }
}