{
  "contractName": "Cryptos",
  "abi": [
    {
      "inputs": [],
      "stateMutability": "nonpayable",
      "type": "constructor"
    },
    {
      "anonymous": false,
      "inputs": [
        {
          "indexed": true,
          "internalType": "address",
          "name": "_owner",
          "type": "address"
        },
        {
          "indexed": true,
          "internalType": "address",
          "name": "_spender",
          "type": "address"
        },
        {
          "indexed": false,
          "internalType": "uint256",
          "name": "_value",
          "type": "uint256"
        }
      ],
      "name": "Approval",
      "type": "event"
    },
    {
      "anonymous": false,
      "inputs": [
        {
          "indexed": true,
          "internalType": "address",
          "name": "_from",
          "type": "address"
        },
        {
          "indexed": true,
          "internalType": "address",
          "name": "_to",
          "type": "address"
        },
        {
          "indexed": false,
          "internalType": "uint256",
          "name": "_value",
          "type": "uint256"
        }
      ],
      "name": "Transfer",
      "type": "event"
    },
    {
      "inputs": [],
      "name": "decimals",
      "outputs": [
        {
          "internalType": "uint256",
          "name": "",
          "type": "uint256"
        }
      ],
      "stateMutability": "view",
      "type": "function",
      "constant": true
    },
    {
      "inputs": [],
      "name": "founder",
      "outputs": [
        {
          "internalType": "address",
          "name": "",
          "type": "address"
        }
      ],
      "stateMutability": "view",
      "type": "function",
      "constant": true
    },
    {
      "inputs": [],
      "name": "name",
      "outputs": [
        {
          "internalType": "string",
          "name": "",
          "type": "string"
        }
      ],
      "stateMutability": "view",
      "type": "function",
      "constant": true
    },
    {
      "inputs": [],
      "name": "symbol",
      "outputs": [
        {
          "internalType": "string",
          "name": "",
          "type": "string"
        }
      ],
      "stateMutability": "view",
      "type": "function",
      "constant": true
    },
    {
      "inputs": [],
      "name": "totalSupply",
      "outputs": [
        {
          "internalType": "uint256",
          "name": "",
          "type": "uint256"
        }
      ],
      "stateMutability": "view",
      "type": "function",
      "constant": true
    },
    {
      "inputs": [
        {
          "internalType": "address",
          "name": "_owner",
          "type": "address"
        }
      ],
      "name": "balanceOf",
      "outputs": [
        {
          "internalType": "uint256",
          "name": "balance",
          "type": "uint256"
        }
      ],
      "stateMutability": "view",
      "type": "function",
      "constant": true
    },
    {
      "inputs": [
        {
          "internalType": "address",
          "name": "_to",
          "type": "address"
        },
        {
          "internalType": "uint256",
          "name": "_value",
          "type": "uint256"
        }
      ],
      "name": "transfer",
      "outputs": [
        {
          "internalType": "bool",
          "name": "success",
          "type": "bool"
        }
      ],
      "stateMutability": "nonpayable",
      "type": "function"
    },
    {
      "inputs": [
        {
          "internalType": "address",
          "name": "_owner",
          "type": "address"
        },
        {
          "internalType": "address",
          "name": "_spender",
          "type": "address"
        }
      ],
      "name": "allowance",
      "outputs": [
        {
          "internalType": "uint256",
          "name": "remaining",
          "type": "uint256"
        }
      ],
      "stateMutability": "view",
      "type": "function",
      "constant": true
    },
    {
      "inputs": [
        {
          "internalType": "address",
          "name": "_spender",
          "type": "address"
        },
        {
          "internalType": "uint256",
          "name": "_value",
          "type": "uint256"
        }
      ],
      "name": "approve",
      "outputs": [
        {
          "internalType": "bool",
          "name": "success",
          "type": "bool"
        }
      ],
      "stateMutability": "nonpayable",
      "type": "function"
    },
    {
      "inputs": [
        {
          "internalType": "address",
          "name": "_from",
          "type": "address"
        },
        {
          "internalType": "address",
          "name": "_to",
          "type": "address"
        },
        {
          "internalType": "uint256",
          "name": "_value",
          "type": "uint256"
        }
      ],
      "name": "transferFrom",
      "outputs": [
        {
          "internalType": "bool",
          "name": "success",
          "type": "bool"
        }
      ],
      "stateMutability": "nonpayable",
      "type": "function"
    }
  ],
  "bytecode": "0x60806040526040518060400160405280600581526020017f566972616a000000000000000000000000000000000000000000000000000000815250600090816200004a9190620003d8565b506040518060400160405280600381526020017f766b70000000000000000000000000000000000000000000000000000000000081525060019081620000919190620003d8565b506000600255348015620000a457600080fd5b50620f424060038190555033600460006101000a81548173ffffffffffffffffffffffffffffffffffffffff021916908373ffffffffffffffffffffffffffffffffffffffff16021790555060035460056000600460009054906101000a900473ffffffffffffffffffffffffffffffffffffffff1673ffffffffffffffffffffffffffffffffffffffff1673ffffffffffffffffffffffffffffffffffffffff16815260200190815260200160002081905550620004bf565b600081519050919050565b7f4e487b7100000000000000000000000000000000000000000000000000000000600052604160045260246000fd5b7f4e487b7100000000000000000000000000000000000000000000000000000000600052602260045260246000fd5b60006002820490506001821680620001e057607f821691505b602082108103620001f657620001f562000198565b5b50919050565b60008190508160005260206000209050919050565b60006020601f8301049050919050565b600082821b905092915050565b600060088302620002607fffffffffffffffffffffffffffffffffffffffffffffffffffffffffffffffff8262000221565b6200026c868362000221565b95508019841693508086168417925050509392505050565b6000819050919050565b6000819050919050565b6000620002b9620002b3620002ad8462000284565b6200028e565b62000284565b9050919050565b6000819050919050565b620002d58362000298565b620002ed620002e482620002c0565b8484546200022e565b825550505050565b600090565b62000304620002f5565b62000311818484620002ca565b505050565b5b8181101562000339576200032d600082620002fa565b60018101905062000317565b5050565b601f82111562000388576200035281620001fc565b6200035d8462000211565b810160208510156200036d578190505b620003856200037c8562000211565b83018262000316565b50505b505050565b600082821c905092915050565b6000620003ad600019846008026200038d565b1980831691505092915050565b6000620003c883836200039a565b9150826002028217905092915050565b620003e3826200015e565b67ffffffffffffffff811115620003ff57620003fe62000169565b5b6200040b8254620001c7565b620004188282856200033d565b600060209050601f8311600181146200045057600084156200043b578287015190505b620004478582620003ba565b865550620004b7565b601f1984166200046086620001fc565b60005b828110156200048a5784890151825560018201915060208501945060208101905062000463565b86831015620004aa5784890151620004a6601f8916826200039a565b8355505b6001600288020188555050505b505050505050565b610dae80620004cf6000396000f3fe608060405234801561001057600080fd5b506004361061009e5760003560e01c80634d853ee5116100665780634d853ee51461015d57806370a082311461017b57806395d89b41146101ab578063a9059cbb146101c9578063dd62ed3e146101f95761009e565b806306fdde03146100a3578063095ea7b3146100c157806318160ddd146100f157806323b872dd1461010f578063313ce5671461013f575b600080fd5b6100ab610229565b6040516100b89190610a1a565b60405180910390f35b6100db60048036038101906100d69190610ad5565b6102b7565b6040516100e89190610b30565b60405180910390f35b6100f9610402565b6040516101069190610b5a565b60405180910390f35b61012960048036038101906101249190610b75565b610408565b6040516101369190610b30565b60405180910390f35b61014761068e565b6040516101549190610b5a565b60405180910390f35b610165610694565b6040516101729190610bd7565b60405180910390f35b61019560048036038101906101909190610bf2565b6106ba565b6040516101a29190610b5a565b60405180910390f35b6101b3610703565b6040516101c09190610a1a565b60405180910390f35b6101e360048036038101906101de9190610ad5565b610791565b6040516101f09190610b30565b60405180910390f35b610213600480360381019061020e9190610c1f565b6108fa565b6040516102209190610b5a565b60405180910390f35b6000805461023690610c8e565b80601f016020809104026020016040519081016040528092919081815260200182805461026290610c8e565b80156102af5780601f10610284576101008083540402835291602001916102af565b820191906000526020600020905b81548152906001019060200180831161029257829003601f168201915b505050505081565b600081600560003373ffffffffffffffffffffffffffffffffffffffff1673ffffffffffffffffffffffffffffffffffffffff16815260200190815260200160002054101561030557600080fd5b6000821161031257600080fd5b81600660003373ffffffffffffffffffffffffffffffffffffffff1673ffffffffffffffffffffffffffffffffffffffff16815260200190815260200160002060008573ffffffffffffffffffffffffffffffffffffffff1673ffffffffffffffffffffffffffffffffffffffff168152602001908152602001600020819055508273ffffffffffffffffffffffffffffffffffffffff163373ffffffffffffffffffffffffffffffffffffffff167f8c5be1e5ebec7d5bd14f71427d1e84f3dd0314c0f7b2291e5b200ac8c7c3b925846040516103f09190610b5a565b60405180910390a36001905092915050565b60035481565b600081600660008673ffffffffffffffffffffffffffffffffffffffff1673ffffffffffffffffffffffffffffffffffffffff16815260200190815260200160002060003373ffffffffffffffffffffffffffffffffffffffff1673ffffffffffffffffffffffffffffffffffffffff16815260200190815260200160002054101561049357600080fd5b81600560008673ffffffffffffffffffffffffffffffffffffffff1673ffffffffffffffffffffffffffffffffffffffff1681526020019081526020016000205410156104df57600080fd5b81600560008673ffffffffffffffffffffffffffffffffffffffff1673ffffffffffffffffffffffffffffffffffffffff168152602001908152602001600020600082825461052e9190610cee565b9250508190555081600660008673ffffffffffffffffffffffffffffffffffffffff1673ffffffffffffffffffffffffffffffffffffffff16815260200190815260200160002060003373ffffffffffffffffffffffffffffffffffffffff1673ffffffffffffffffffffffffffffffffffffffff16815260200190815260200160002060008282546105c19190610cee565b9250508190555081600560008573ffffffffffffffffffffffffffffffffffffffff1673ffffffffffffffffffffffffffffffffffffffff16815260200190815260200160002060008282546106179190610d22565b925050819055508273ffffffffffffffffffffffffffffffffffffffff168473ffffffffffffffffffffffffffffffffffffffff167fddf252ad1be2c89b69c2b068fc378daa952ba7f163c4a11628f55a4df523b3ef8460405161067b9190610b5a565b60405180910390a3600190509392505050565b60025481565b600460009054906101000a900473ffffffffffffffffffffffffffffffffffffffff1681565b6000600560008373ffffffffffffffffffffffffffffffffffffffff1673ffffffffffffffffffffffffffffffffffffffff168152602001908152602001600020549050919050565b6001805461071090610c8e565b80601f016020809104026020016040519081016040528092919081815260200182805461073c90610c8e565b80156107895780601f1061075e57610100808354040283529160200191610789565b820191906000526020600020905b81548152906001019060200180831161076c57829003601f168201915b505050505081565b600081600560003373ffffffffffffffffffffffffffffffffffffffff1673ffffffffffffffffffffffffffffffffffffffff1681526020019081526020016000205410156107df57600080fd5b81600560008573ffffffffffffffffffffffffffffffffffffffff1673ffffffffffffffffffffffffffffffffffffffff168152602001908152602001600020600082825461082e9190610d22565b9250508190555081600560003373ffffffffffffffffffffffffffffffffffffffff1673ffffffffffffffffffffffffffffffffffffffff16815260200190815260200160002060008282546108849190610cee565b925050819055508273ffffffffffffffffffffffffffffffffffffffff163373ffffffffffffffffffffffffffffffffffffffff167fddf252ad1be2c89b69c2b068fc378daa952ba7f163c4a11628f55a4df523b3ef846040516108e89190610b5a565b60405180910390a36001905092915050565b6000600660008473ffffffffffffffffffffffffffffffffffffffff1673ffffffffffffffffffffffffffffffffffffffff16815260200190815260200160002060008373ffffffffffffffffffffffffffffffffffffffff1673ffffffffffffffffffffffffffffffffffffffff16815260200190815260200160002054905092915050565b600081519050919050565b600082825260208201905092915050565b60005b838110156109bb5780820151818401526020810190506109a0565b838111156109ca576000848401525b50505050565b6000601f19601f8301169050919050565b60006109ec82610981565b6109f6818561098c565b9350610a0681856020860161099d565b610a0f816109d0565b840191505092915050565b60006020820190508181036000830152610a3481846109e1565b905092915050565b600080fd5b600073ffffffffffffffffffffffffffffffffffffffff82169050919050565b6000610a6c82610a41565b9050919050565b610a7c81610a61565b8114610a8757600080fd5b50565b600081359050610a9981610a73565b92915050565b6000819050919050565b610ab281610a9f565b8114610abd57600080fd5b50565b600081359050610acf81610aa9565b92915050565b60008060408385031215610aec57610aeb610a3c565b5b6000610afa85828601610a8a565b9250506020610b0b85828601610ac0565b9150509250929050565b60008115159050919050565b610b2a81610b15565b82525050565b6000602082019050610b456000830184610b21565b92915050565b610b5481610a9f565b82525050565b6000602082019050610b6f6000830184610b4b565b92915050565b600080600060608486031215610b8e57610b8d610a3c565b5b6000610b9c86828701610a8a565b9350506020610bad86828701610a8a565b9250506040610bbe86828701610ac0565b9150509250925092565b610bd181610a61565b82525050565b6000602082019050610bec6000830184610bc8565b92915050565b600060208284031215610c0857610c07610a3c565b5b6000610c1684828501610a8a565b91505092915050565b60008060408385031215610c3657610c35610a3c565b5b6000610c4485828601610a8a565b9250506020610c5585828601610a8a565b9150509250929050565b7f4e487b7100000000000000000000000000000000000000000000000000000000600052602260045260246000fd5b60006002820490506001821680610ca657607f821691505b602082108103610cb957610cb8610c5f565b5b50919050565b7f4e487b7100000000000000000000000000000000000000000000000000000000600052601160045260246000fd5b6000610cf982610a9f565b9150610d0483610a9f565b925082821015610d1757610d16610cbf565b5b828203905092915050565b6000610d2d82610a9f565b9150610d3883610a9f565b9250827fffffffffffffffffffffffffffffffffffffffffffffffffffffffffffffffff03821115610d6d57610d6c610cbf565b5b82820190509291505056fea26469706673582212201b8f245e4301c0d20ca8f9849e08f7b83e16559ea227308a3dca2b27176a68a764736f6c634300080f0033",
  "immutableReferences": {},
  "source": "//SPDX-License-Identifier:MIT\npragma solidity 0.8.15;\n\ninterface IERC20Interface {\n\n    function totalSupply() external view returns(uint);\n    function balanceOf(address _owner) external view returns (uint256 balance);\n    function transfer(address _to, uint256 _value) external returns (bool success);\n    \n    function allowance(address _owner, address _spender) external view returns (uint256 remaining);\n    function approve(address _spender, uint256 _value) external returns (bool success);\n    function transferFrom(address _from, address _to, uint256 _value) external returns (bool success);\n\n\n    event Transfer(address indexed _from, address indexed _to, uint256 _value);\n    event Approval(address indexed _owner, address indexed _spender, uint256 _value);\n}\n\ncontract Cryptos is IERC20Interface{\n    string public name = \"Viraj\";\n    string public symbol = \"vkp\";\n    uint public decimals = 0;\n    uint public override totalSupply;\n    address public founder;\n    mapping(address => uint) balances;\n    mapping(address => mapping(address => uint)) allowed;\n \n    constructor(){\n        totalSupply = 1000000;\n        founder = msg.sender;\n        balances[founder] = totalSupply;\n    }\n \n    function balanceOf(address _owner) public view returns (uint256 balance){\n        return balances[_owner];\n    }\n\n    function transfer(address _to, uint256 _value) public returns (bool success){\n         require(balances[msg.sender]>=_value);\n         \n             balances[_to] += _value;\n             balances[msg.sender] -= _value;\n        \n         emit Transfer(msg.sender,_to,_value);\n         return true; \n    }\n\n   function allowance(address _owner, address _spender) public view returns (uint256 remaining){\n        return allowed[_owner][_spender];\n    }\n\n    function approve(address _spender, uint256 _value) public returns (bool success){\n        require(balances[msg.sender]>= _value);\n        require(_value>0);\n\n        allowed[msg.sender][_spender] = _value;\n\n        emit Approval(msg.sender , _spender, _value);\n        return true;\n    }\n\n    function transferFrom(address _from, address _to, uint256 _value) public returns (bool success){\n        require(allowed[_from][msg.sender] >= _value);\n        require(balances[_from]>=_value);\n\n            balances[_from] -= _value;\n            allowed[_from][msg.sender] -= _value;\n            balances[_to] +=_value;\n     \n\n        emit Transfer(_from,_to,_value);\n        return true;\n    }\n}",
  "sourcePath": "/home/viraj/Desktop/token_sale/contracts/ERC20.sol",
  "compiler": {
    "name": "solc",
    "version": "0.8.15+commit.e14f2714.Emscripten.clang"
  },
  "schemaVersion": "3.4.7",
  "updatedAt": "2022-07-20T11:20:54.824Z",
  "networkType": "ethereum",
  "devdoc": {
    "kind": "dev",
    "methods": {},
    "version": 1
  },
  "userdoc": {
    "kind": "user",
    "methods": {},
    "version": 1
  }
}